:100000000C9435000C943F020C946C020C945D002F
:100010000C945D000C945D000C945D000C945D00EC
:100020000C945D000C945D000C945D000C945D00DC
:100030000C945D000C945D000C945D000C945D00CC
:100040000C9499020C945D000C9486030C945D0052
:100050000C945D000C945D000C945D000C945D00AC
:100060000C945D000C945D00FD0011241FBECFEFC9
:10007000D4E0DEBFCDBF12E0A0E0B1E0EEE5F8E0F5
:1000800002C005900D92AE30B107D9F712E0AEE094
:10009000B2E001C01D92A43AB107E1F710E0CAE650
:1000A000D0E004C02297FE010E942904C836D1077F
:1000B000C9F70E94F8000C942D040C940000CF9214
:1000C000DF92EF92FF920F931F930EE012E0C801B0
:1000D00040E855E260E070E00E940801C80160E07D
:1000E00071E00E944401C8010E944C01C80168E20D
:1000F00071E00E944401C8010E944C01C80165E5FD
:1001000071E00E944401C8010E944C01C80163E8EB
:1001100071E00E944401C8010E944C01C8016DEACF
:1001200071E00E944401C80161E470E00E94220273
:1001300093EBC92E91E0D92EC801B6010E9444016B
:10014000C8010E944C01C80165EB71E00E944401A6
:10015000C80161E170E00E9422028AECE82E81E091
:10016000F82EC801B7010E944401C80164E070E0A4
:100170000E942202C801B7010E944401C80169ED32
:1001800077E00E942202C801B6010E944401C80122
:100190000E944C01C8016CEC71E00E944401C8014E
:1001A0000E944C01C80141E450E060E070E020E0B2
:1001B00030E00E942A02C80164EF71E00E9444010D
:1001C000C80141E450E060E070E020E130E00E94CE
:1001D0002A02C80169EF71E00E944401C8010E942F
:1001E0004C011F910F91FF90EF90DF90CF900895F9
:1001F0000E940B030E945F00FFCF87E092E0909384
:100200000F0280930E020895862F0E947E030895A8
:10021000CB01BA010E94450308950F931F93CF931A
:10022000DF938C01EB0109C02196D801ED91FC917F
:100230000190F081E02DC801099568816623A1F73E
:10024000DF91CF911F910F910895EF92FF920F933D
:100250001F93CF93DF938C017B01EA010CC0D70180
:100260006D917D01D801ED91FC910190F081E02D1F
:10027000C80109952197209791F7DF91CF911F91A0
:100280000F91FF90EF900895DC01ED91FC910280B9
:10029000F381E02D099508950F931F938C01DC01E4
:1002A000ED91FC910190F081E02D6DE00995D80170
:1002B000ED91FC910190F081E02DC8016AE0099573
:1002C0001F910F9108952F923F924F925F926F92DC
:1002D0007F928F929F92AF92BF92CF92DF92EF92D6
:1002E000FF920F931F93DF93CF93CDB7DEB7A09705
:1002F0000FB6F894DEBF0FBECDBF1C016A017B01B3
:10030000411551056105710549F4DC01ED91FC9140
:100310000190F081E02D60E3099554C08824992470
:100320005401422E55246624772401E010E00C0F7E
:100330001D1F080D191DC701B601A30192010E94DE
:10034000D603F80160830894811C911CA11CB11C88
:10035000C701B601A30192010E94D603C901DA01C7
:100360006C017D01C114D104E104F104F1F681E0D6
:10037000E82EF12CEC0EFD1EE80CF91C3E01089451
:10038000611C711CD501C4010197A109B1096C015F
:10039000C818D90814C0F601EE0DFF1D60816A303F
:1003A00010F4605D01C0695CD101ED91FC91019098
:1003B000F081E02DC10109950894E108F1086E145F
:1003C0007F0449F7A0960FB6F894DEBF0FBECDBFED
:1003D000CF91DF911F910F91FF90EF90DF90CF9021
:1003E000BF90AF909F908F907F906F905F904F9055
:1003F0003F902F900895EF92FF920F931F93CF930A
:10040000DF93EC017A018B0177FF0FC0E881F9815E
:100410000190F081E02D6DE2099510950095F09422
:10042000E094E11CF11C011D111DCE01B801A701D2
:100430002AE00E946301DF91CF911F910F91FF90FD
:10044000EF900895AB01662757FD6095762F0E94C7
:10045000FB010895DC012115310541F4ED91FC917A
:100460000190F081E02D642F099508952A3031051F
:1004700019F40E94FB0108950E94630108951F92E0
:100480000F920FB60F9211242F933F934F935F93C8
:100490006F937F938F939F93AF93BF93EF93FF934C
:1004A0008091100290911102892B29F0E0911002A5
:1004B000F09111020995FF91EF91BF91AF919F913A
:1004C0008F917F916F915F914F913F912F910F90FD
:1004D0000FBE0F901F9018951F920F920FB60F929C
:1004E00011242F933F934F935F936F937F938F9339
:1004F0009F93AF93BF93EF93FF93809112029091DC
:100500001302892B29F0E0911202F0911302099550
:10051000FF91EF91BF91AF919F918F917F916F91DB
:100520005F914F913F912F910F900FBE0F901F90B1
:1005300018951F920F920FB60F9211242F938F933D
:100540009F93AF93BF932A9A8091140290911502C2
:10055000A0911602B09117020196A11DB11D8093C2
:10056000140290931502A0931602B0931702809183
:10057000180290911902A0911A02B0911B028050AA
:10058000904CAF4FBF4F8093180290931902A093E5
:100590001A02B0931B0227C0809118029091190291
:1005A000A0911A02B0911B0280549F41A040B0401C
:1005B0008093180290931902A0931A02B0931B0221
:1005C00080911C0290911D02A0911E02B0911F0209
:1005D0000196A11DB11D80931C0290931D02A09352
:1005E0001E02B0931F028091180290911902A091EF
:1005F0001A02B0911B0281549F41A040B04060F6A6
:100600002A98BF91AF919F918F912F910F900FBE1C
:100610000F901F901895789484B5826084BD84B53E
:10062000816084BD85B5826085BD85B5816085BDED
:10063000EEE6F0E0808181608083E1E8F0E0808197
:1006400082608083808181608083E0E8F0E0808147
:1006500081608083E1EBF0E0808184608083E0EB67
:10066000F0E0808181608083EAE7F0E0808184604F
:1006700080838081826080838081816080838081AB
:10068000806880831092C1000895EF92FF920F93CB
:100690001F937B018C0122E030E040E050E00E949B
:1006A000F803205E3E45484F5F4FCA01B901A801DB
:1006B00097010E94F803C901DA010197A109B10964
:1006C000292F3A2F4B2F552747FD5A950196A11DEB
:1006D000B11D2093C50081508093C400E1ECF0E08F
:1006E0008081806180838081886080838081806850
:1006F00080831F910F91FF90EF900895982F809124
:10070000C00085FFFCCF9093C60008951F920F9202
:100710000FB60F9211242F933F934F935F936F93D4
:100720007F938F939F93AF93BF93EF93FF934091EA
:10073000C600E0912002F0912102CF01019660E80D
:1007400070E00E94C3039C018091220290912302D9
:100750002817390739F0EC5DFD4F408330932102B3
:1007600020932002FF91EF91BF91AF919F918F91C4
:100770007F916F915F914F913F912F910F900FBE9D
:100780000F901F90189597FB092E07260AD077FD2A
:1007900004D049D006D000201AF4709561957F4F9F
:1007A0000895F6F7909581959F4F0895A1E21A2E2E
:1007B000AA1BBB1BFD010DC0AA1FBB1FEE1FFF1F05
:1007C000A217B307E407F50720F0A21BB30BE40B55
:1007D000F50B661F771F881F991F1A9469F760959C
:1007E0007095809590959B01AC01BD01CF01089556
:1007F00097FB092E05260ED057FD04D0D7DF0AD06F
:10080000001C38F450954095309521953F4F4F4F3F
:100810005F4F0895F6F790958095709561957F4F9D
:100820008F4F9F4F0895AA1BBB1B51E107C0AA1F02
:10083000BB1FA617B70710F0A61BB70B881F991F81
:100840005A95A9F780959095BC01CD010895EE0FBA
:0E085000FF1F0590F491E02D0994F894FFCF5E
:10085E005468697320697320616E206578616D70CC
:10086E006C65206F6620746865206E6577207374E2
:10087E007265616D696E67006C6962726172792E64
:10088E0020205468697320616C6C6F777320796FC8
:10089E007520746F207072696E7420766172696152
:1008AE00626C657300616E6420737472696E677337
:1008BE0020776974686F757420686176696E672039
:1008CE00746F2074797065206C696E652061667432
:1008DE006572006C696E65206F6620536572696182
:1008EE006C2E7072696E7428292063616C6C732E85
:1008FE0020204578616D706C65733A200041206947
:10090E007320002E005468652063757272656E74D4
:10091E00206461746520697320002D00596F752065
:10092E0063616E20757365206D6F646966696572AB
:10093E007320746F6F2C20666F72206578616D70F6
:10094E006C653A00206973200020696E2068657816
:0E095E002E20000000000004010D0125010004
:00000001FF
